:020000040800F2
:10000000005000206F040008C1040008C304000869
:10001000C5040008C7040008C90400080000000067
:10002000000000000000000000000000CB040008F9
:10003000CD04000800000000CF040008D10400082F
:10004000D3040008D5040008D7040008D904000828
:10005000DB040008DD040008DF040008E1040008F8
:10006000E3040008E5040008E7040008E9040008C8
:10007000EB040008ED040008EF040008F104000898
:10008000F3040008F5040008F7040008F904000868
:10009000FB040008FD040008FF0400080105000837
:1000A0000305000805050008070500080905000804
:1000B0000B0500080D050008ED00000811050008FB
:1000C00013050008150500081705000819050008A4
:1000D0001B0500081D0500081F0500082105000874
:1000E000230500082505000827050008F8B5624823
:1000F000012101F059FE002800F0BD805E48012179
:1001000001F05DFE5D4A5E4913885E4801339BB293
:1001100013800B884C889BB2A4B2558830F81440E9
:1001200030F81330ADB223449D42B7BF538800234B
:1001300001339BB253805388534E9BB2A34208D8DD
:10014000B36813F4007F0CBF4FF4F8534FF470639F
:1001500001E04FF4F8531479032C4FD8DFE804F092
:10016000021025350C880A25A4B2B4FBF5F420440E
:1001700090F84E000F2403434448C460012022E05D
:100180000C880A27A4B2B4FBF7F507FB1544A4B208
:10019000204490F84E00F02403433C48C460022001
:1001A0001071108810F4807F24E04C880A25A4B2D6
:1001B000B4FBF5F4204490F84E004FF47064034310
:1001C0003248C4600320107118E04C880A27A4B29A
:1001D000B4FBF7F507FB1544A4B2204490F84E0099
:1001E0004FF470440343294813F4805FC4604FF018
:1001F000000010711CBF23F080039BB2F3605379A1
:1002000021481E4C23B16379013BDBB26371F8BD19
:100210008368DD0514D4836819485C0507D40B880E
:100220009BB25BB10388013B9BB2038006E04B8825
:100230009BB21BB14388013B9BB243804023537167
:10024000B368180517D4104B0D489B685B0508D49C
:100250000B889BB2262B0CD8038801339BB20380FA
:1002600007E04B889BB2262B9FBF438801339BB28C
:10027000438040235371F8BD000800402C0000204B
:1002800000000020881E000800080140000C01400A
:10029000704700BFEFF309800046704780F309887C
:1002A0007047EFF308800046704780F30888704776
:1002B000EFF31280704780F311887047EFF31080DE
:1002C000704780F310887047EFF31380704780F316
:1002D00013887047EFF31480704780F314887047D9
:1002E00000BA704740BA7047C0BA704790FAA0F0A1
:1002F0007047D0E84F0FC0B27047D0E85F0F80B2B0
:10030000704750E8000F7047C1E8420F1046704731
:10031000C1E8520F1046704741E8000070470000E6
:10032000384B82B01A6842F001021A605968364AA6
:100330000A405A601A6822F0847222F480321A60ED
:100340001A6822F480221A605A6822F4FE025A6067
:100350004FF41F029A600022009201921A6842F440
:1003600080321A601A6802F400320192009A013257
:100370000092019A1AB9009AB2F5A06FF2D11A68E8
:1003800012F4003218BF01220192019A012A05D00D
:100390001E4B4FF000629A6002B070471C4A116811
:1003A00041F010011160116821F003011160116822
:1003B00041F0020111605A685A605A685A605A68DE
:1003C00042F480625A605A6822F47C125A605A6879
:1003D00042F4E8125A601A6842F080721A60196892
:1003E000084A8901FBD5516821F003015160516829
:1003F00041F0020151605A6802F00C02082AFAD159
:10040000C6E700BF001002400000FFF800ED00E06A
:1004100000200240114A124B516801F00C010429DE
:1004200001D0082901D00F490EE051685068C1F38E
:100430008341C00301F1020102D55068800301D558
:10044000094800E00748414319605268C2F30312AB
:100450001A4411791A68CA401A60704700100240A5
:100460000400002000127A0000093D00704708B522
:10047000FFF756FF0B4A0C4B1A600C4A0C4B0D4908
:100480008B4204D252F8041F43F8041BF7E70A4BCF
:100490000A4A934203D2002243F8042BF8E701F002
:1004A00093FCFEE70000000808ED00E0E01E0008F5
:1004B000000000202C0000202C0000203400002030
:1004C000FEE7FEE7FEE7FEE7FEE7FEE7FEE7FEE704
:1004D000FEE7FEE7FEE7FEE7FEE7FEE7FEE7FEE7F4
:1004E000FEE7FEE7FEE7FEE7FEE7FEE7FEE7FEE7E4
:1004F000FEE7FEE7FEE7FEE7FEE7FEE7FEE7FEE7D4
:10050000FEE7FEE7FEE7FEE7FEE7FEE7FEE7FEE7C3
:10051000FEE7FEE7FEE7FEE7FEE7FEE7FEE7FEE7B3
:10052000FEE7FEE7FEE7FEE708B5204B98420BD159
:100530004FF48040012100F031FCBDE808404FF449
:100540008040002100F02ABC194B984207D14FF49B
:100550000030012100F02EFC4FF400301FE0154B5D
:10056000984207D14FF48020012100F023FC4FF482
:10057000802014E0104B984207D14FF40020012155
:1005800000F018FC4FF4002009E00C4B98420BD10E
:100590004FF48010012100F00DFC4FF48010002179
:1005A000BDE8084000F006BC08BD00BF00380140AF
:1005B0000044004000480040004C00400050004013
:1005C00070B50E460446038ACA889BB223F4405392
:1005D0001343038282890989B38892B20B437189DC
:1005E00022F4B0520B4322F00C0213439BB28381DE
:1005F000838AB2899BB223F4407386B0134383820B
:1006000001A800F065FB039B049D174A31689442E2
:1006100018BF1D46A38919226A431BB2002BB4BF21
:100620004D008D00B2FBF5F56426B5FBF6F0000138
:10063000010906FB1153A28912B2002AADBF1A01AB
:10064000D90032313232B5BFB1FBF6F2B2FBF6F36C
:1006500002F0070203F00F03B4BF1043184380B247
:10066000208106B070BD00BF003801404FF4165322
:1006700003600C2200238380C38003814281838135
:1006800070470B8810B54C88028A23438C88C98830
:1006900092B223430B4322F4706213439BB2038252
:1006A00010BD0023038043808380C380704783890B
:1006B00019B19BB243F4005303E023F400531B042D
:1006C0001B0C8381704710B5C1F34214012301F064
:1006D0001F01012C03FA01F301D10C3003E0022CBD
:1006E0000CBF1030143012B10268134302E00268EC
:1006F00022EA0303036010BD838A9BB20AB1194347
:1007000001E023EA010181827047038A23F00F038D
:100710001B041B0C0382038A9BB21943018270479E
:10072000838923F400631B041B0C838183899BB2A0
:10073000194381817047838919B19BB243F0020349
:1007400003E023F002031B041B0C83817047038A20
:1007500023F020031B041B0C0382038A9BB2194362
:1007600001827047038A19B19BB243F4804303E0CE
:1007700023F480431B041B0C03827047C1F3080160
:10078000818070478088C0F30800704783899BB2DE
:1007900043F0010383817047038BDBB20383038B38
:1007A0009BB243EA012101837047038B03F47F432B
:1007B0000383038B9BB2194301837047838A19B16A
:1007C0009BB243F0200303E023F020031B041B0C27
:1007D00083827047838A19B19BB243F0100303E010
:1007E00023F010031B041B0C83827047838A19B10A
:1007F0009BB243F0080303E023F008031B041B0C27
:1008000083827047838929B16FEA43436FEA534378
:100810009BB201E0C3F30E0383817047838A19B151
:100820009BB243F4006303E023F400631B041B0C3E
:1008300083827047838A23F004031B041B0C83828A
:10084000838A9BB2194381827047838A19B19BB214
:1008500043F0020303E023F002031B041B0C83821A
:1008600070470388194214BF012000207047C94314
:1008700089B201807047012310B5C1F3421401F021
:100880001F029C4203FA02F201D1838903E0022C89
:100890000CBF038A838A9BB21340028892B23BB199
:1008A000090A01238B40134214BF0120002010BD10
:1008B000184610BD090A01238B40DB439BB203801D
:1008C000704700BF08B5234B984205D10420012191
:1008D00000F064FA042036E01F4B984205D108204E
:1008E000012100F05BFA08202DE01C4B984205D155
:1008F0001020012100F052FA102024E0184B9842F9
:1009000005D12020012100F049FA20201BE0154BE1
:10091000984205D14020012100F040FA402012E029
:10092000114B984205D18020012100F037FA802038
:1009300009E00E4B98420BD14FF48070012100F07A
:100940002DFA4FF480700021BDE8084000F026BA6F
:1009500008BD00BF00080140000C0140001001402C
:100960000014014000180140001C0140002001401B
:1009700008B50120014600F011FABDE80840012049
:10098000002100F00BBACA78F0B5D40648BF8C78C5
:100990000D8802F00F0348BF234315F0FF0F1DD051
:1009A000016800240126A64006EA0507B74211D1D6
:1009B0004FEA840E0F2606FA0EF621EA0601282ACF
:1009C00003FA0EF641EA060101D1476102E0482A26
:1009D00008BF07610134082CE4D10160FF2D1FD945
:1009E0004168002404F108070126BE4006EA050715
:1009F000B74211D14FEA840E0F2606FA0EF621EA0D
:100A00000601282A03FA0EF641EA060101D14761E0
:100A100002E0482A08BF07610134082CE2D1416096
:100A2000F0BD4FF6FF730380022383700423C3706D
:100A300070478368194214BF012000207047806806
:100A400080B27047C368194214BF0120002070476C
:100A5000C06880B2704701617047416170470AB158
:100A60000161704741617047C160704741F4803354
:100A7000836181618361836983697047054A136873
:100A800023F07F031B041B0C194341EA0010106084
:100A9000704700BF00000140014B1860704700BF65
:100AA0001C002042002830B5154C00F44015B4BF9E
:100AB000E3696368B5F5401F82B206D1656823F02B
:100AC000706325F0706565600EE0C40255BF440D8B
:100AD00003242401C0F303454CBFAC4002FA04F4E4
:100AE00023EA040343F0706319B1410D09018A4000
:100AF0001343034A0028B4BFD361536030BD00BF25
:100B00000000014001F0030301F0FC0101F180410C
:100B100001F5803110B59B008C680F229A4024EAC1
:100B200002028A608A68984002438A6010BD014BC5
:100B300018607047DC0020420D4B1A6842F0010239
:100B40001A6059680B4A0A405A601A6822F0847287
:100B500022F480321A601A6822F480221A605A68DD
:100B600022F4FE025A604FF41F029A60704700BFE1
:100B7000001002400000FFF80C4BB0F5803F1A68EF
:100B800022F480321A601A6822F480221A6003D09C
:100B9000B0F5802F04D070471A6842F4803202E02A
:100BA0001A6842F4A0221A60704700BF0010024089
:100BB000034A136823F0F80343EAC000106070474B
:100BC00000100240014B1860704700BF0000424215
:100BD000034A536823F47C13194308435060704759
:100BE00000100240014B1860704700BF6000424295
:100BF000034A536823F0030318435060704700BF53
:100C000000100240024B586800F00C00704700BF13
:100C100000100240034A536823F0F0031843506069
:100C2000704700BF00100240034A536823F4E0639A
:100C300018435060704700BF00100240034A5368D9
:100C400023F4605343EAC000506070470010024034
:100C5000044B1A7809B1104301E022EA0000187031
:100C6000704700BF09100240014B1860704700BF79
:100C7000D8004242034A536823F44043184350606B
:100C8000704700BF00100240064B002201281A7076
:100C90001A7002D0042802D07047187070470522DD
:100CA0001A70704720100240014B1860704700BF57
:100CB00080044242024A136A18431062704700BF20
:100CC00000100240014B1860704700BF3C044242D4
:100CD0001C4A10B5536803F00C03042B01D0082BF9
:100CE00001D0194B0EE053685168C3F38343CC0322
:100CF00003F1020302D55168890301D5134900E0CD
:100D000011494B43036053681149C3F30313CC5C8F
:100D10000368E34043605468C4F302240C5D23FA83
:100D200004F484605468C4F3C2240C5DE340C360DF
:100D30005268C2F381320A44127CB3FBF2F30361BE
:100D400010BD00BF0010024000127A0000093D00F3
:100D500018000020044B5A6909B1104301E022EA4F
:100D600000005861704700BF00100240044B9A69B0
:100D700009B1104301E022EA00009861704700BF0A
:100D800000100240044BDA6909B1104301E022EA85
:100D90000000D861704700BF00100240044BDA68C1
:100DA00009B1104301E022EA0000D860704700BF9B
:100DB00000100240044B1A6909B1104301E022EA15
:100DC00000001861704700BF00100240014B18601E
:100DD000704700BF40044242014B1860704700BF9B
:100DE0004C004242014B1870704700BF0710024090
:100DF0004209012A074B01D11B6803E0022A0CBFFC
:100E00001B6A5B6A00F01F0023FA00F000F001008B
:100E1000704700BF0010024007B500230193312046
:100E2000FFF7E6FF019B01330193019BB3F5A06F30
:100E300001D00028F3D03120FFF7DAFF003018BFCF
:100E4000012003B05DF804FB024A536A43F080734B
:100E50005362704700100240034B9B68184214BF56
:100E600001200020704700BF00100240014B1870A5
:100E7000704700BF0A10024008B5154B98420BD1CD
:100E80004FF480500121FFF789FFBDE808404FF47F
:100E900080500021FFF782BF0E4B984207D14FF4DC
:100EA00080400121FFF786FF4FF4804009E00A4BA4
:100EB00098420BD14FF400400121FFF77BFF4FF424
:100EC00000400021BDE80840FFF774BF08BD00BF27
:100ED0000030014000380040003C004003884A8850
:100EE00010B503F441540B8813438A881343CA880E
:100EF00013430A8913434A8913438A891343CA89CE
:100F0000134323439BB20380838B23F400631B04AE
:100F10001B0C83830B8A038210BD838BF0B523F4F3
:100F20007B6323F00F031B041B0C838302230384C6
:100F30008B68868B022B87B005460C46B6B223D051
:100F40008B8801A8002B14BF02270127FFF7C0FEE2
:100F5000E3880199B3F5007F1CBF7F01B1FBF7F176
:100F60004FF00A0208BF090A4A43A368B2FBF3F331
:100F700005330A229BB2B3FBF2F303F00102120223
:100F8000C3F34F0392B200E00022991E89B2FE29FA
:100F900024BF002202231343E28813439BB22B8415
:100FA0002388A2881E43638846F4006633431343B4
:100FB000A28913439BB2AB8307B0F0BD002303802B
:100FC00043808380C380038143818381C38107235E
:100FD0000382704700230222038043808380C38002
:100FE000826083817047038819B19BB243F040034C
:100FF00003E023F040031B041B0C03807047838B2A
:1010000019B19BB243F4806303E023F480631B04B3
:101010001B0C83837047090901238B409BB21AB1D3
:10102000828892B2134303E0828892B222EA0303D9
:101030008380704783889BB20AB1194301E023EA99
:1010400001018180704781817047808980B270473B
:101050004FF6FF63994203880BBF23F480739BB262
:101060001B0443F4807308BF1B0C03807047838804
:1010700019B19BB243F0040303E023F004031B0403
:101080001B0C83807047038823F400631B041B0C34
:10109000038003889BB219430180704703889BB289
:1010A00043F4805303807047038819B19BB243F423
:1010B000005303E023F400531B041B0C0380704710
:1010C000012914BF008B808A80B27047008A80B2E9
:1010D00070470388B1F5804F15BF23F480439BB25E
:1010E0001B0443F4804318BF1B0C03807047038923
:1010F000194214BF012000207047C94389B2018101
:10110000704710B584880389012201F00F009BB25B
:1011100002FA00F01840A4B205D009098A4014422E
:1011200014BF0120002010BD01F00F0101238B40EE
:10113000DB439BB20381704730B5058C25F0010578
:101140002D042D0C0584058B048CADB225F0F30520
:101150002A4342EA03139AB2104BA4B2984212D027
:1011600003F5006398420ED0B0F1804F0BD0A3F589
:101170009833984207D003F58063984203D003F573
:101180008063984202D124F0020401E024F00A04B2
:1011900044F0010421430283018430BD002C01404E
:1011A00030B5048C24F010042404240C0484058B32
:1011B000048C25F440752D052D0D45EA022242EAE6
:1011C0000333144AA4B290429BB212D002F50062DB
:1011D00090420ED0B0F1804F0BD0A2F598329042E1
:1011E00007D002F58062904203D002F580629042FF
:1011F00007D124F0200545F0100545EA011189B218
:1012000004E024F0A00444F010042143038301848B
:1012100030BD00BF002C014008B55A4B984207D1A1
:101220004FF400600121FFF7B9FD4FF40060A2E028
:10123000B0F1804F05D101200146FFF7BBFD012031
:1012400007E0514B984209D102200121FFF7B2FD7E
:1012500002200021BDE80840FFF7ACBD4B4B98428F
:1012600005D104200121FFF7A5FD0420F1E7484B3B
:10127000984205D108200121FFF79CFD0820E8E7EE
:10128000444B984205D110200121FFF793FD102017
:10129000DFE7414B984205D120200121FFF78AFD6D
:1012A0002020D6E73D4B984207D14FF40050012152
:1012B000FFF774FD4FF400505DE0394B984207D1C1
:1012C0004FF400200121FFF769FD4FF4002052E0A8
:1012D000344B984207D14FF480100121FFF75EFD97
:1012E0004FF4801047E0304B984207D14FF4001084
:1012F0000121FFF753FD4FF400103CE02B4B9842C7
:1013000005D140200121FFF755FD4020A1E7284BE2
:10131000984205D180200121FFF74CFD802098E7FD
:10132000244B984207D14FF480700121FFF742FD12
:101330004FF480708DE7204B984207D14FF48030F6
:101340000121FFF72BFD4FF4803014E01B4B984236
:1013500007D14FF400300121FFF720FD4FF400309A
:1013600009E0174B98420BD14FF480200121FFF781
:1013700015FD4FF480200021BDE80840FFF70EBDA9
:1013800008BD00BF002C01400004004000080040E0
:10139000000C0040001000400014004000340140E8
:1013A000004C014000500140005401400018004032
:1013B000001C00400020004000400140004401406B
:1013C00000480140224A038890429BB212D002F5A5
:1013D000006290420ED0B0F1804F0BD0A2F598324F
:1013E000904207D002F58062904203D002F58062FD
:1013F000904203D14A8823F070031343154A904268
:1014000008D002F5806290421FBF23F44073CA885F
:101410009BB2134303808B8883850B8803850C4B19
:1014200098420FD003F5006398420BD003F5406358
:10143000984207D003F58063984203D003F5806398
:10144000984201D10B7A038601238382704700BF43
:10145000002C014000100040038C70B523F0010304
:101460001B041B0C0384028C8688038B0D8823F0DD
:1014700073031B041B0C1D4322F002024C880B89D2
:101480001204120C23431343144AB6B290429BB287
:101490000FD002F5006290420BD002F540629042FC
:1014A00007D002F58062904203D002F5806290423C
:1014B0000ED14C8923F008031C438B8824F00404CC
:1014C00026F440722343CE898C893443224396B25A
:1014D000CA88868005838286038470BD002C014003
:1014E000038C30B523F010031B041B0C0384038C06
:1014F0008588028B0C8822F4E6421204120C42EA20
:10150000042223F0200394B21B040A891B0C43EA33
:1015100002134A88ADB243EA0213124A9BB29042C8
:1015200003D002F50062904215D123F080034A896E
:101530009BB243EA02124FF6BF7313408A8825F428
:10154000406543EA02138A899BB245EA8205CA894B
:1015500045EA8205ADB2CA88858004830287038488
:1015600030BD00BF002C0140038C30B523F48073E4
:101570001B041B0C0384038C8488828B0D8822F04F
:1015800073021204120C23F4007315431B040A891E
:101590001B0C43EA02234A88A4B243EA0223124AFC
:1015A0009BB2904203D002F50062904215D123F421
:1015B00000634A899BB243EA02224FF6FF3313408D
:1015C0008A8824F4405443EA02238A899BB244EA7D
:1015D0000214CA8944EA0214A4B2CA8884808583AA
:1015E0008287038430BD00BF002C0140038C30B5DE
:1015F00023F480531B041B0C0384038C8488828B8C
:101600000D8822F4E6421204120C23F4005342EA3D
:1016100005221B040D891B0C43EA05334D88A4B237
:1016200043EA05330A4D92B2A8429BB203D005F5B6
:101630000065A84205D18D8924F4804444EA8514CC
:10164000A4B284808283CA88A0F84020038430BD7D
:10165000002C01404A880B8813438A881343CA88A8
:1016600013430A8913434A8913438A8913439BB25C
:10167000A0F8443070474FF6FF7383800023038047
:10168000C3804380037270470023038043808380BC
:10169000C380038143818381C3817047002301227A
:1016A000038043808280C3800381704700230380CE
:1016B00043808380C3800381438183817047038893
:1016C00019B19BB243F0010303E023F001031B04B3
:1016D0001B0C03807047B0F8443029B16FEA4343D4
:1016E0006FEA53439BB201E0C3F30E03A0F844300A
:1016F000704783899BB20AB1194301E023EA0101D3
:1017000081817047818270470A43A0F84820704762
:1017100083899BB20AB1194301E023EA0101818167
:101720007047038923F007031B041B0C03817047D8
:10173000038923F070031B041B0C194301810389E7
:101740009BB243F007030381704738B50D46602D07
:10175000114604464FF0010202D1FFF721FD01E0DE
:10176000FFF7EAFC218921F070010904090C2943E3
:10177000218123899BB243F00703238138BD10B533
:101780000489E4B221430A4342EA032399B2018166
:1017900010BD10B50446FFF7F2FF238923F077034D
:1017A0001B041B0C43F07703238110BD10B50446C6
:1017B000FFF7E5FF23899BB243F48043238110BDEB
:1017C000018582827047038823F070031B041B0C81
:1017D000194301807047038923F070031B041B0C1D
:1017E00019430181704770B50689048B058C24F478
:1017F0004074ADB224F0030425F0220526F007065C
:1018000024042A433604240C360C44F4807442EA3F
:101810000313314344F001049DB201810483058424
:1018200070BD038B23F070031B041B0C1943018351
:101830007047038B23F4E0431B041B0C43EA012194
:1018400089B201837047838B23F070031B041B0C48
:10185000194381837047838B23F4E0431B041B0CE3
:1018600043EA012189B281837047038819B19BB291
:1018700043F0800303E023F080031B041B0C038070
:101880007047838819B19BB243F0040303E023F04F
:1018900004031B041B0C83807047838819B19BB21F
:1018A00043F0080303E023F008031B041B0C8380B0
:1018B0007047838819B19BB243F0010303E023F022
:1018C00001031B041B0C83807047038B23F0080368
:1018D0001B041B0C194301837047038B23F4006323
:1018E0001B041B0C43EA012189B201837047838BDF
:1018F00023F008031B041B0C194381837047838B5F
:1019000023F400631B041B0C43EA012189B2818389
:101910007047038B23F004031B041B0C1943018342
:101920007047038B23F480631B041B0C43EA0121E3
:1019300089B201837047838B23F004031B041B0CC3
:10194000194381837047838B23F480631B041B0C32
:1019500043EA012189B281837047038B23F080031E
:101960001B041B0C194301837047038BC3F30E0345
:1019700043EA012189B201837047838B23F08003FE
:101980001B041B0C194381837047838BC3F30E0325
:1019900043EA012189B281837047038C23F002035B
:1019A0001B041B0C194301847047038C23F00803AC
:1019B0001B041B0C194301847047038C23F0200384
:1019C0001B041B0C43EA011189B201847047038C8C
:1019D00023F080031B041B0C43EA011189B201842C
:1019E0007047038C23F400731B041B0C43EA012192
:1019F00089B201847047038C23F400631B041B0C21
:101A000043EA012189B201847047038C23F4005317
:101A10001B041B0C43EA013189B201847047038C1B
:101A200010B59CB201238B4024EA03030384038C8A
:101A30008A4013439BB2038410BD038C10B59CB243
:101A400004238B4024EA03030384038C8A4013435A
:101A50009BB2038410BD30B5048C00F11803A5B20D
:101A600001248C4025EA0404048421F0080030B9E4
:101A70004908585820F070005850585809E0043967
:101A8000C1F34E01C858120220F4E040C850C858B3
:101A900092B20243CA5030BD038819B19BB243F0E1
:101AA000020303E023F002031B041B0C03807047B6
:101AB000038819B19BB243F0040303E023F004034D
:101AC0001B041B0C03807047838819B19BB243F041
:101AD000800303E023F080031B041B0C838070470A
:101AE000038823F008031B041B0C038003889BB2AC
:101AF000194301807047838823F070031B041B0C7B
:101B0000838083889BB2194381807047038923F0C7
:101B100007031B041B0C038103899BB2194301813A
:101B20007047038923F080031B041B0C0381038986
:101B30009BB219430181704781847047818570474A
:101B4000818670470187704781877047A0F84010F1
:101B50007047038B23F00C031B041B0C0383038BC4
:101B60009BB2194301837047038B23F440631B042A
:101B70001B0C0383038B9BB243EA012189B20183CF
:101B80007047F8B50C464988A2880029B4F800E0EF
:101B90000CBF02270027012A05460CBF022601269A
:101BA0002389BEF1000F11D1FFF7C6FA2846E1885C
:101BB000FFF7CFFF2846394632462389FFF7F0FA70
:101BC0002846E188BDE8F840FFF7CEBFFFF7E8FA06
:101BD0002846E188FFF7C8FF284639463246238960
:101BE000FFF7AAFA2846E188BDE8F840FFF7B1BF41
:101BF000838B23F00C031B041B0C8383838B9BB20E
:101C0000194381837047838B23F440631B041B0CAF
:101C10008383838B9BB243EA012189B2818370471E
:101C2000F8B50D460E8804464988AA882B893EB926
:101C3000FFF782FA2046E988BDE8F840FFF789BF40
:101C4000042E07D1FFF7ACFA2046E988BDE8F8403A
:101C5000FFF78ABF082E008CEE883AD120F48070FE
:101C60000004000C2084A78B208CBFB227F0F30760
:101C700047EA0317374BBFB29C4280B242EA0702E1
:101C800012D003F500639C420ED0B4F1804F0BD00C
:101C9000A3F598339C4207D003F580639C4203D0A0
:101CA00003F580639C4207D120F4007040EA0120D4
:101CB00080B240F4807004E020F4206341F480702E
:101CC0001843A283314620842046BDE8F840FFF740
:101CD0008FBF20F480500004000C2084A78BB4F840
:101CE00020E027F440752D052D0D45EA022242EA39
:101CF0000333184A1FFA8EFE94429BB212D002F5AB
:101D0000006294420ED0B4F1804F0BD0A2F598320D
:101D1000944207D002F58062944203D002F58062BB
:101D2000944207D12EF4005040EA013080B240F4D2
:101D3000805006E047F6FF5241F480500EEA02025E
:101D40001043A383314620842046BDE8F840FFF7C6
:101D50005ABF00BF002C0140038823F440731B04CA
:101D60001B0C038003889BB2194301807047808E4F
:101D700080B27047008F80B27047808F80B270470A
:101D8000B0F8400080B27047808C80B27047008D00
:101D900080B27047038A194214BF012000207047A7
:101DA000C94389B201827047038A828911EA03001C
:101DB00092B203D0114214BF012000207047C943E2
:101DC00089B20182704700BF30B5042085B001217F
:101DD000FEF7CCFF41F2FF03032410252548694696
:101DE000ADF800308DF802408DF80350FEF7CBFDC2
:101DF0004FF47063ADF800301E48482369468DF8F3
:101E000003308DF80240FEF7BEFD08200121FEF7E9
:101E1000ADFF4FF6FF7318486946ADF800308DF8F6
:101E200002408DF80350FEF7AEFD01210420FEF7BD
:101E3000A9FF01A8FFF71FFC104B4FF47A721B6833
:101E40000124B3FBF2F30E48013B01A9ADF80430C5
:101E5000ADF80840FFF7B6FA224609482146FFF7D9
:101E600048FC07482146FFF72AFC064B4FF080420A
:101E70001A60FEE700080140000C01400400002049
:101E80000008004000E100E0000001000200030043
:101E90000400060007000A000D00120018002000D0
:101EA0002A0038004B0064008500B100EC003B01C3
:101EB000A4013102EB02E5033105EC063A094E0CB0
:101EC0006710DF152A1DE226D83320452B5CE47A03
:101ED000DAA378DAFFFFC0F9A4B0999282F8809073
:041EE000C00000003E
:101EE4000300270000A24A040000000000000000D4
:101EF40001020304060708090000000001020304AC
:0C1F040001020304060708090204060895
:0400000508000000EF
:00000001FF
